:20000000003A0120B9FD010039FB021039FB021039FB021039FB021039FB021039FB02102A
:1C00200039FB021039FB021039FB021039FB021039FB021039FB021011FB021002
:20004000BA492DE9F04F0446B74ADFF8E8920E68A578507800279046ADF1540D29460C29B1
:2000600007D9DFF8CCB2DFF8D0A2203933290FD953E3DFE811F06D055E0543052D050D0506
:20008000F704F304DD04C7045203BA04B6049604DFE811F083047F047B046B046704EC0242
:2000A00051042F04B10287024303430343034303430343030B04F003D303B80359029D034A
:2000C0003402FC01430343034303430343034303E801B5019C0143038C03790183037703BE
:2000E0006A0354012A01E500660362035803C000480382004503670046003400E1788DF871
:200100002A7031F07F0006D011F07F0F0CBF381C0120CA49087053210DF12A0300F004BD25
:2001200008F1110332203946012226F075FC08F1120333203946012226F06EFCC84898F814
:2001400011100078012905D04FF400611EF08CFF00F001BD4FF40061642226F0F3FF00F0FA
:20016000FABC8DF82B7078B9E41C204626F09EFE0546A01C0446083026F098FE024621467C
:20018000284624F092FD00E012208DF82B0051210DF12B0300F0C8BCE01C26F087FEE51CE2
:2001A000AE784FF6FF748DF80A600546ADF80850AC4218D0E01EA84215D0A01EA84212D0FD
:2001C00002208DF80C00ADF80E5003A81CF076F8012818BF4FF001090CD1BDF80E00ADF8B6
:2001E0000800012000E038468DF80B0002A81DF04FFF8146E41EAC4204DC012088F82A0081
:2002000088F82B6022F0C8F88DF82C904F210BAB00F08ABC20798DF82E00E078012814D0B3
:20022000022809D0032805D052200DF12E0124F0F9FE0FE03C4600E0012452200DF12E01FC
:2002400022F0EAF888F8004004E052200DF12E0122F0E2F84D210DF12E0300F065BCE17874
:2002600038465EB13279914205D1F2880DEB4003401CC0B21A813668002EF3D18DF830003A
:200280009DF83000012404EB4000C0B205461AF0CDF85FEA000806D18DF83070492122469A
:2002A0000CAB00F042BC02469DF8300002F8010B38469DF8301081420ADC652049212A462B
:2002C000434622F0F7FB404621F006FF00F043BC0DEB400108310B7813700988401CC0B22F
:2002E00009125170921CE4E7301CE4788DF8317013D03E4601798C420BD11EB905680B49B8
:200300000D6002E001683160056821F0E5FE284601E0064600680028ECD122F09DF80DF1A6
:200320003103472100F000BCAC0401202C1A00201B1B0120F003012092170020E01C10F806
:20034000014B26F0B3FD0146C7480068224650B13E4603799A4202D1C388994205D006466E
:2003600000680028F5D1012008E006B9BE4E0168316021F0B1FE22F06FF838468DF83200EB
:200380000DF13203CDE739460DF12200062207911BF05AFFE01C07A925F084FB8DF82200CC
:2003A000079870B101888DF8231046888DF8256009128DF8241031128DF8261000798DF894
:2003C0002700432106220DF12203AEE364788DF8377048B1012805D002281CBF01208DF80C
:2003E000370004D1022000E004200DF0E1FE24F01F04202C40F0AF830DF13703EEE220469C
:2004000090F80180C01C26F051FD59460A7849468E6856B13C4633799A4202D1F3889842B4
:2004200005D034463668002EF5D101200EE03CB9346804B93C468C6004E0C046E41700200B
:2004400030682060304621F047FE384628F01F088DF83800B8F1200F40F07D830EABBDE2DE
:200460005817002020464478C01C26F01FFD01465846007820F0DEF924F01F048DF8390084
:20048000202C40F068830DF13903A7E2E41C204626F00CFDA41CADF8080014F8010B042103
:2004A0008DF81000204625F01BFC0646201D10F8019B10F8018B26F0F9FC044631464A46F8
:2004C000434602A800941DF09FFC8DF83A009DF810000F280FD1022053468DF81000188842
:2004E00031464A46ADF80800434602A800941DF08BFC8DF83A000DF13A036FE2207826469E
:20050000042806F1030614BF16F8010B02208DF81000304626F0CAFCD54CADF80800B01C1F
:2005200010F8018B012626700278414602A81FF0E9F88DF83B002770404625F0D3FF0DF10D
:200540003B0332464BE20220E41C8DF81000204626F0ACFC4E46A11CADF808000C7A706881
:2005600026F014FE7168C4F3400804F00104B8F1010F0F7204D17268107A40F0400010721D
:20058000012C03D1087A40F080000872484602A9342209231EF022F80DF13D038DF83D00CB
:2005A000C1E20226E41C8DF81060204626F07EFCA41CADF80800204626F078FCA278804648
:2005C00002A84146144625F037FD8DF845009DF810000F280CD1504600888DF8106041462A
:2005E0002246ADF8080002A825F026FD8DF845000DF14503F2E10226E41C8DF8106020469E
:2006000026F054FCA41CADF8080014F8010B8DF84700204626F04AFCA41C14F8019B804633
:2006200002A90DF14700424600944B46019721F043FB8DF846009DF810000F2811D1504617
:2006400000888DF810603E4602A94246ADF808004B4600940DF14700019621F02DFB8DF8FA
:2006600046000DF14603B9E12C1A0020A946E51CA878B846FE280BD1E878FF2808D12078E5
:20068000082805DB284626F011FC294624F091FD284608A925F0B0FD041C0ED1182019F087
:2006A000C5FE5FEA000807D0BDF8200039461822434626F0B1F900B1C824192019F0B6FEE5
:2006C000061C20D05CB9701C2946082225F07AFE06F109004146102225F074FE04E0701C91
:2006E000FF2118221BF0B0FD3470652049461922334622F0DFF93046394619221BF0A4FDB6
:20070000304621F0E9FCB8F1000F00F024824046394618221BF098FDD5E502271BE21CF054
:20072000C3F918E2E01C26F0C1FBE51C0246A81C10F8011B1CF0AAFC4E210DF12D038DF830
:200740002D00F1E18DF82F7025F0E4FE0DF12F034C218DF82F00E7E120461CF06BF9FAE1B5
:2007600020461EF02EFBF6E1E01C26F09FFB6179A2791DF0C2FC46210DF133038DF8330046
:20078000D2E1E01C26F092FB6179A27911F00AFF45210DAB8DF83400C6E1E01C11F024FC6D
:2007A00044210DF135038DF83500BDE1E01C26F07DFBE51CA91C0B4608310A4619461FF0AE
:2007C000CFFA42210DF136038DF83600ACE10220E41C8DF81000204626F068FB4E46A11C87
:2007E000ADF808000C7A706826F0D0FC706802A935220923047248461DF0F0FE0FAB8DF8C8
:200800003C00EBE00220E41C8DF81000204626F04DFBADF80800A0780DF13F0602A933224E
:200820008DF83F00012300964846019721F044FA0DF13E038DF83E00D0E00220E41C8DF86C
:200840001000204626F032FBADF80800A0780DF1410602A932228DF84100012300964846C8
:20086000019721F029FA10AB8DF840005BE1C046240A01200220E41C8DF81000204626F068
:2008800015FBADF80800A0780DF1430602A931228DF84300012300964846019721F00CFA7F
:2008A0000DF142038DF842003DE10220E41C8DF81000204626F0FAFAA41CADF80800042157
:2008C000204625F00DFA4E46221D014612F8018B7068137825F06AFD02A900F8018B302286
:2008E0000370484606231DF079FE11AB8DF8440019E10126E41C8DF84860601C26F0D6FA15
:20090000814604F10B0026F0D1FA804694F800A0637BA07B22F0C0FF0093E01C49465246BD
:20092000434613F0C7FC12AB8D498DF84800042026F0E6FA05E60126E41C04218DF8496089
:20094000204625F0CDF921791EF02EFB85498DF84900022026F0D4FA83490DF149030320AA
:20096000E6E720461AF01CF8F5E0E41C204626F09DFAA11C0B4608310A4619461FF0F0F950
:200980000DF14A038DF84A00CDE020461AF0BFFBE1E020461AF078FBDDE020460FF07CFF25
:2009A000D9E0E01C26F082FA4E464FF6FD740F22ADF8084071688DF8102002230412152288
:2009C00001F8010B48460C7002A9F7701DF006FE39468DF84B000DF14B03F1700122294657
:2009E000A3E0204618F07CFFB5E0E41C204626F05DFAA11C0A7A3B4622F096FB13AB8DF87B
:200A00004C0090E00220E41C8DF81000204626F04DFAADF80800A01C26F048FA0146112265
:200A200002A825F009FB0DF14D038DF84D007AE00220E41C8DF81000204626F037FAADF870
:200A40000800A01C26F032FA0146102202A825F0F3FA0DF14E038DF84E0064E020460FF0A0
:200A60007BFA78E00220E41C8DF81000204626F01DFAADF80800A01C26F018FA0146052260
:200A800002A825F0D9FA0DF14F038DF84F004AE00220E41C8DF81000204626F007FAA41C82
:200AA000ADF80800204626F001FA4E467268A1781070726803125370706803230422817044
:200AC00002A948461DF08AFD14AB8DF850002AE00220E41C8DF81000204626F0E7F9ADF8F3
:200AE0000800A01C26F0E2F90146032202A825F0A3FA0DF151038DF8510014E00226E41C35
:200B00008DF81060204626F0D1F9ADF80800A01C26F0CCF90146324602A825F08DFA0DF153
:200B200052038DF8520029460122652021F0C2FF11E0E41C204626F0B9F9A41C14F8011B99
:200B4000227822F0DDFE0DF153038DF85300EAE7204617F0B7FA384615B0BDE8F08FC04686
:200B60001130020097520200795201002DE9F04F04464FF6FE70ADF15C0DADF85400A4483D
:200B800040784FF00008022812D1A148007878B92089002807BF30204146102001210EF0F9
:200BA000D5FF8DF8568052200DF1560121F034FC6068217A08AA12F0F5FA002800F0D98483
:200BC0009DF822000228B4BF012747469DF824000228A8BF4746BDF82A104FF6FE7BABF1EC
:200BE000060B8B450ED04FF6FE70401F884209D04FF6FE70001F884204D04FF6FE70C01E80
:200C0000884200D1474626F01BF99DF82310884240F0AF84002F00F0AC847D484078022897
:200C200004D19DF85100002840F0A384208D9DF82660678EADF84C00ADF82E70D6B1616839
:200C40009DF821209DF83C30012025F003FC002840F08F84C448001D007801280AD1208DCB
:200C600026F037FA30B1417901F0EF01417141F0080141719DF82570DFF8E492DFF8E4A23F
:200C80004646002F49D19DF83D00474658BBBDF82A00034621F0C0F94546022808BF012579
:200CA000002D9DF8225018BF012749460988994208BF47F0020727B1002D14BF4021202185
:200CC0000F43184621F0A8F9012808BF47F00107002D3BD01298007825F0E2FE012818BF34
:200CE00027F0010732E09DF8411041B1FF2906D09DF84000119A22F0B5FD50B126E052460A
:200D0000BDF82A10508F884205D092F84A0004281CD101261AE0222718E0BDF82A10FF2009
:200D200023F0A2FD002804BF3D1C082708D09DF8250047F001052C2740F001008DF8250091
:200D400005F00305012D08BF47F0110730489DF82650407830F0010005D107F002010E43D5
:200D600008BF47F08007DFF8DCC295B961460E787EB107F0220122290BD007F042014229EA
:200D800040F0F78312990978062918BF072940F0F083F9094FEAA7155AD3BDF82A201299D6
:200DA00048B96046C01C0078800804D30878401E0A282FD909E00878C01E01282AD9001F2F
:200DC00028D0C01E26D0801E24D0B8F1000F21D148460088904240F0CC830D780520BDF845
:200DE0002C408DF8110004A824F01CFD002800F0C0830269032313271370511C0F704C70C7
:200E000022128A70CD70448009F022FAB1E3C046AC04012068081BD30878032802D1487887
:200E20000D2815D09DF8280038B1BDF82C000E990EF082FC012800F098839DF8270038B115
:200E4000BDF82A000D990EF077FC012800F08A8309F10E00B4F844100088884209D1CDF87D
:200E60000080208DB4F8421094F8462043460AF0C9FF9DF82600002843D0208DB4F8421069
:200E800020F0C4FF061C25D19DF8510088B99AF89000012835D112980078062801D168085D
:200EA0002FD2BDF82E100BF10700884240F0C5805FE3042024F030FC011C00F05A836420E8
:200EC000087001274F70208D48809AF800001FF075FF4EE39DF821106068F3780A18527B10
:200EE0009A4203D0F27040467060606840180421401C24F0F5FE7168814200F23A83401C3C
:200F00007060B348DFF8C4B24078022800F08F8230F0010040F02D839AF832008008C0F0D9
:200F200028839DF8510030B3BDF82C0025F0F5F9E0B9A5495C46BDF82C000B686269990177
:200F4000A1EB83019047012840F01383A169BDF82C008847E168BDF82C00884709E3C04616
:200F60009217002058170020581700206168487800F0DF0048709DF8320038B16168887900
:200F8000401E8871C0B28DF8320008B907F07F07380924D39DF82500F9084FF4805814D29F
:200FA00079091AD3811011F0070F01F0070604D0072E1CBF761EF6B20EB907F07F0700F0C8
:200FC000E30040EA8600C0B205E020F01C00C11021F0030108438DF82500616808729AF84B
:200FE0004A00042800F0E981092800F0E68117F0610F40F0EF809DF82200012811D1129817
:201000000078052800F0D88003280AD1BDF82A0025F083F928B1218D08A815AA002301F063
:20102000CFFB9DF8320078B99DF82200012804D112980078032800F09C8208A821461EF0B9
:201040003FFF96E28717002024F0A4FE002840F090829DF83D0000286DD19DF82400BDF856
:201060002A10FD100028ADF854102ED13A0930D29DF82220012A28D0084600211BF0E4FE5E
:20108000002620B14079012816D0022814D0BDF85400B4F8441020F0B9FE28B1807824F0CE
:2010A0006EFB08B1082807DBBDF82C0025F035F918B104208DF824000126BDF82A10002EFE
:2010C00008BF022272D09DF824006A0838BF002300D340230DF13D021BF0F0FE30B1616888
:2010E000087848F0200800F03F0008709DF83D0040B1BDF82A1010A820F06EFF48F0400802
:20110000ADF854009DF82200012806D0BDF82A00BDF82C10002218F09FF868082CBF4022D2
:201120000022BDF82C10BDF82A0015F085F908B148F0200833E09DF840009DF84110119AA8
:2011400022F090FB00282ED09DF8410038B9BDF82A00ADF8540025F0BCFF00BB1DE01199FB
:201160009DF8286001EB400030F8020C002EADF854000CBF082110219DF8270008B10831F6
:20118000C9B29DF82500002200B1012266688918491CCAB2905D401E905548F0400824F010
:2011A000D7F88146A8E0BDF82A100B22BDF82C0000231BF08FFBDCE1218D08A815AA00235F
:2011C00001F0FEFAD5E1C046908A02004C020120AC04012078084FF0000967D39DF8330044
:2011E000B4F828B0C04D494616901E20EA79169B934206D1BDF82C302A88934201D1AE789B
:201200002EB9401E05F1080501F10101EED11E2921D0AE79E6B1BAF84810584623F016FC10
:2012200008B1761EAE71BE4833210279FF2A02D00288934504D0491E00F12400F5D102E018
:20124000A879401EA871A8794828A4BF4E46AE7127F060072AE024F07BF881469DF83200B2
:2012600028B9BDF82C00218D814202D11EE0BDF82C00BAF83A10884202D19AF80600A8B1FF
:20128000218D08A84A4610F0B5FB58B1380932BFBDF82A004FF6FE70401C48F00408ADF89E
:2012A000540003E027F020074FF00009B8094FEAA71510D394F8460094F8476094F94830CE
:2012C0008DF81000E26B8DF8116004A98DF8123008A804F037FF68080ED3218D08A815AA7A
:2012E0004B4601F06DFA5FEA000905D012980078012808BF48F01008BDF854104FF6FE70B0
:20130000884208BF4FF000099C49C97E012927D1628E411C914223D0228D914220D0BDF86C
:201320002A10401F88421BDDBDF82C00904217D025F0CFFEA0B10179012918BF02290FD1FF
:2013400001218DF810104088ADF81C0004A81FF0E1F828B105A81EF027FC08B121F01CF814
:2013600037F07F0000F00581B9F1000F00F00181208919F05BF8071C00F0FB80616822891F
:2013800025F020F8002605969DF822008DF81000CDF80090CDF8048004AD0296BDF8541013
:2013A0000395228D237A384614F0FAFC002800F0E080384620F090FEDBE04946BDF82A0014
:2013C000098881420AD020F027FE022806D09DF8250000F00300012840F0CB809DF82200A2
:2013E00098B112980178042904D19DF83C10022900F090800078072804D19DF83C100429E9
:2014000000F0848003287CD0B3E094F846008DF8100094F847708DF8117094F948608DF864
:201420001260E26B08A804A904F08CFEA1E09AF84A00042818BF092840F09B80B80971D232
:2014400012986908C0F095800178042903D19DF83C1002295ED00178072903D19DF83C208A
:20146000042A53D003294CD00C2940F08280401C424A10F8017B0578164601215120D21CA6
:20148000F57025F097FD3D4B3B49012658465C79067057B9002C14BF4EF660204FF47A7022
:2014A00051F8241000FB01F405E00846203000684EF6602444430320B4FBF0F441464FF405
:2014C00080400EF043FB9AF8000002211DF0CCFD68080BD2A8084CD39AF80000022122464C
:2014E00025F02DFE45E0C046440200204FF48040214616F03DFD4FF4804031460EF026FBD8
:2015000037E008A8002112F0EFFA32E008A81AF0E7FC2EE0002008A90BF008FE29E0C0465A
:201520002C10002094F8460094F847709DF832508DF8100094F948608DF81170012D8DF8A0
:2015400012607FF46EAF208DBDF82C1088427FF468AFBDF82A0020F05FFD022808BF8DF8D6
:2015600032805EE7BDF82A0001E0BDF82C001FF051FA17B0BDE8F08F6C8A0200AC040120C5
:20158000B94A2DE9F04F0846ADF14C0D11780F90000C80F067849246B44D0F9A6878920B20
:2015A00080F03184022813D10F9A520810D39AF850000F2807D19AF84A0020B1012802D079
:2015C000002021F0EFFA0F9880F0010000F06ABC0F9A920980F04C83DFF89892DFF898824E
:2015E00030F0010740F0BC820F9A520980F03D820F99C90980F0C4819D490F9F0A78390A9A
:2016000080F0AD813946490A43D23946090B2AD20F999AF80370490B1AD20F99C90BC0F09D
:201620009F824C46A06A70B1297D01290BD18047E06A00B180479AF800004FF480414FF4BE
:201640007A7225F07CFD0F9880F4804000F02ABC27B100208AF8030020F084FA0F9880F439
:20166000805000F01FBC20F07DFA687C01280BD1A97C49B19AF800004FF47A7212FB01F27F
:201680004FF4006125F05BFD384680F4006000F009BC25F0DBFB4FF6FE7B834500F05B81F5
:2016A0009AF832008008C0F0568100263446304623F0DCFB071C19D03879012816D0022861
:2016C00014D0F879411CF9719AF88B1081420DDABC727C72388822F0B5FC388801A923F0FB
:2016E00068FD01A81EF060FA20F056FE761C332EDDDBA8F11C0614275D46119436F81C0FCE
:2017000085420CD0307B9AF88B40411C8442317305DA1198B0747074308822F093FC7F1ED1
:20172000ECD14C46032104F13C0010F8047F0FB17F1E0770491EF8D1B04C332605F1010921
:2017400034F8240F81451FD001208DF804006788ADF8107001A81EF0DDFEA8B1A8F11C0512
:20176000142735F81C0F2188814208D0BDF80610814204D002A8A91C24F014FD10B128466D
:2017800024F0A2FD7F1EECD1761ED9D1119D2C46284623F06BFB48B1077937F0040705D176
:2017A000807A23F0ECFF08B1641CE4B26D1C332DEEDB23F011FF119E5FEA00080ED0354634
:2017C000284623F059F928B1807C23F0D8FF08B1761CF6B26D1CEDB2A845F1DCA019C7B270
:2017E000002F4BD0B80018F021FE1090002808BF119F45D0BA00FF211AF026FD119E35463B
:20180000B44218DD284623F031FB031C10D0187930F004000CD1987A23F0B1FF011C07D0D6
:20182000009718885A7A109B19F0B4FC761CF6B26D1C332DE4DBB8F1000F21D0119C20469B
:2018400023F01AF9061C0AD0B07C23F098FF011C05D00097109B3088727C19F09BFC641C96
:20186000E4B2A045EBDC0BE058170020AC040120960901204C0201209C04002011981090A3
:201880009AF83000002808BF4FF0620805D024F0D5FDC0F154005FFA80F80320B8F1600F22
:2018A00098FBF0FAA8BF4FF01F0ADDF84090ABF1020BB8F1000F0EBF119D2025DDF844807D
:2018C000BA45A6BF3C1C45F040055446032014FB00F0801C8DF8050001A823F0A3FF4E46FE
:2018E000031C26D01869082104F01F02017045EA02014170801CA4B12246C01E361F16F826
:20190000041F00F8031F318809124170B17801F0070CF178521E01F0070141EA0C118170CD
:20192000EDD1A3F802B001209876184608F090FC00E00120E90906D2641EE4B20CB109EBF7
:2019400084093F1BFFB205F040052843B1D0109808B120F0C1FB0F9880F48070A2E21043BA
:2019600008D1B3480179012902D10021C170017121F07EFD1FF08AF9384680F0800091E259
:20198000B44C1E2600214FF006084FF00409A778002F43D07F1EFBB26079A37024F0CAFBD9
:2019A000071C3AD06BB9787B022808BF87F80D8033D087F80D803868407BF0211FF00EFF4F
:2019C0002BE0A3791BB9787B032812D025E023791BB3E078401EC3B2E370F3B99AF82500BC
:2019E000E0702079401EC3B22371787B032814D133B92046394620F0EFFB0EE008100020A3
:201A000087F80D9025F00DFB00F00F00401C38819AF8000020211DF0BDFD0121761E04F134
:201A20000804B4D19AF80000012910D040211DF01BFB95F82A00012813D1002085F82A006A
:201A400095F82B0016F0BAFF20F0A6FC09E0402120F022FB28B99AF800004021642225F077
:201A60006EFB0F9880F040001CE20846102120F013FB30B99AF8000010214FF47A7225F01B
:201A80005EFBBB48DFF8EC82417808F2AC54491ECFB217BB012141700020052124F082F891
:201AA000071C1BD006253846052124F07BF80646388978B1401E80B2388158B97889C00869
:201AC00002D3387B22F0A6FA7D733868407BF0211FF084FE371CE6D100E0477064274FF66E
:201AE000FE7600252079A0B1FF2812D0401E2071C0B270B96079032805D160882188022241
:201B00001DF002F86079012803D0268066806571A5717F1E04F10804E4D108F15A04082798
:201B2000207A401E2072C0B230B9C048214622F0D9FB90B9668025707F1E04F10A04EFD147
:201B4000BB4AC82112F8080F08B1401E1070491EF8D10F9880F01000A4E11FF069FBE4E7C5
:201B60004C460F992778890864D20F992289890A40D20F99090906D301200F9F8AF80600E3
:201B800087F008008EE10F99C90A26D20F98400C38BF0020C0F08681C44C332501262079FB
:201BA00080B105280EDA607900090BD28DF804606088ADF8100001A81EF0ACFC10B102A8D0
:201BC0001DF0F2FF6D1E04F12404E8D100200F9F8AF8040087F4803064E1022801D11AF0DC
:201BE00011FDBAF84800012119F028FD0F9880F4806057E1BAF8485004F108015020AAF800
:201C0000482020F009FC2689142744466089854205D0864204D0204624F056FB00E0668120
:201C20007F1E04F11C04F1D10F9880F4007039E1CCE8002087B9BAF83E10012021F046FE01
:201C40006878022810D19AF8000001211DF00CFA0AE0C0464402002001A825F03EFA25F071
:201C6000E3F801A91DF0DEFB0F9880F0020019E10846202120F010FA28B9DAF81000002852
:201C800008BF012616D025F01FFC044625F0BAF84FF47A716043B0FBF1F1DAF810000028C7
:201CA00008BF002004D088428CBF4FF0FF30081A46086AD00020042123F074FF071C64D01A
:201CC000FF254FF0FF3B06244FF001093846042123F068FF10903889864204D8801B83B202
:201CE0003B8113B14EE000203881BB7B012B02D17889C00840D3002B36D08DF804508DF8BD
:201D000005508DF806B03968086AC97F02AA11F049FA4FF00008012808BFC8465FEA080052
:201D20001DD0788A40F08000ADF83600B87B8DF838007889000908D3BDF8360040F4807045
:201D4000ADF83600387B8DF83A007B6913B1187BADF8180001A9002202A804F0F3F97C73F9
:201D6000387B1AF03DF80DE087F80D900AE0C046F40E0120200100207C733868407BB721F2
:201D80001FF02CFD109F002FA0D10CF083F89AF800300020012123F005FF18B118462021C2
:201DA0001DF0F8FB0020042123F0FCFEB3B278B152460789147823F0F5FEF8B9BB42AEBF6E
:201DC0000027FF1ABFB2204627B920211DF0E2FB00200DE07A00202125F0B4F925F074FBD3
:201DE000044625F00FF84FF47A716043B0FBF1F0CAF810000F9880F0200053E00289BA425D
:201E0000D8BF171CD7E725F0DBF9294C0546201D00680746C0B157F80C1C9AF8000049B923
:201E20004FF400511CF00CFE08E0C04641190200E40900204FF400511DF0ACFB2046394674
:201E40000022001D21F062FF284625F039FB2FB13846FEF78BFE384623F064FD0F9880F431
:201E600000501FE008461DF067FB071C17D0114920310A78FF2A0FD03C780B46002094421C
:201E800007D0401CC0B2C200D1189A5CFF2AF6D102E0496838468847384623F043FD0F98B4
:201EA00080F4004013B0BDE8F08FC0462C100020780A01206C8602002DE9F04FC14DC24C1D
:201EC000DFF808A3C44E88465FEA1840ADF11C0D80F09E826F78DFF8F892DFF8F8B25FEA96
:201EE000580080F01B82384630F0010040F091805FEA980058D25FEA981044D25FEAD8303A
:201F0000C0F087800120022122F09CFFC5B20DB3E80018F08BFA071C1DD0C04C82464FF04A
:201F2000010933262079012818BF02280DD18DF804906088ADF8100001A81EF0EBFA20B17A
:201F400002A9504625F022F98246761E04F12404E8D100E0002797B175B10F204FF6FC7683
:201F60008DF80C001F24ADF8046001A92A463B46C248009415F0EAFC384620F0ADF888F4B1
:201F8000804000F00DBC207A38B92078062802D1072024F08FFA23F055FDE07910211DF0E4
:201FA000F9FA88F02000FBE3207AE8B92178E079082917D123F00CFF092024F07BFABF489B
:201FC0000078052806D0072809D10720012105F0D3FA04E0012023F039F81CF063FA23F0AD
:201FE00031FD13E010210FE024F024FFEF2803DB002023F02BF809E024F01CFF1030C0B254
:2020000024F02AFFE07901211DF0C4FA88F00200C6E3CE48CE4B0668B3F900005FEA58111F
:2020200080F04E815FEA181028BF88F0080080F0B7835FEA582080F0D1805FEAD80080F0CC
:20204000B78037F001001CD15FEAD81019D32069A0B116F029FA20690768206920F03CF84F
:2020600027615FB1FA8802E0F888801AF8803F68002FF9D1E079402125F064F888F040004F
:202080008EE35FEA182064D25FEA98205CD2C84C5FEA18302CD25FEAD82027D3142018F0CF
:2020A000C5F9071C1FD0002524342E46207A012812D10097042029463246142320F0F8FEDA
:2020C00050B9206838606068294614223B467860042021F067FD26726D1C0C34C82DE5DB62
:2020E00038461FF0F9FF88F4806059E3002057E3182018F09BF9071C23D000252E46207A4C
:20210000012812D10097062029463246182320F0CFFE50B9206838616068294618223B46DB
:202120007861062021F03EFD26726D1C0C34032DE5DB3846314618221AF086F838461FF0BF
:20214000CBFF88F400602BE319F036FA88F4007026E31CF0A7F9207805281DD1E0790421C0
:202160001CF082FFE07904211CF06AFC062024F0A1F9687830F0010007D15046007800F037
:202180000700022801D024F045FD20F005F919F013FA1EF027FB01E020F0FEF8012022F079
:2021A00011F80320012105F0E7F988F08000F7E2FF20032121F094F924F054FEC2490120B8
:2021C0000860FEE7AC0401202C030120FC1901205817002004050120F81901204A4692F856
:2021E0004A00082818BF042845D124322120742124F0E0FEBF4E6878716832880024B14693
:20220000A2423DDC30F001002DD1044CFF25002694F82100802822D102E0C0462C1000207C
:202220006788ADF8067023798DF80830A1798DF80A1062798DF809202088ADF80400E77948
:2022400084F82150237D8DF80B70A7698DF80C3031461022032001AB049721F0A3FC761CCB
:202260002434332ED4DBBB48006800B180470020022121F035F988F4807091E2F00301209E
:20228000A30003EBC403CF5C37F07F0C13D017F07F07CF540B4405D101A8FF210C2219F051
:2022A000D3FF01AB012021460C2221F07BFC6878D9F804103288641CA4B2A1E7F717002057
:2022C000B0F1FF3F37465C4602D1B8480078A0805FB17968087818B1486800781AF0BEFF6C
:2022E0003F68002FF5D1B4F90400B0F1FF3F02D0C0B21AF0B3FF24F0A9FDAD49088024F066
:2023000031F8687C012806D14C4620784FF40061642224F017FF88F0100041E2012024F052
:20232000C9F83046677801793546122201F0070A11F0070F16D1022F0CD0012F12D1082016
:2023400024F0B8F824F066FC0BE0C046540A012008050120082024F0ADF80020014612F05B
:202360008DF90246BAF1010F18BFBAF1020F45D107B3032F1ED0012F40D1BAF1010F3DD147
:202380000A2024F097F84C4620784FF480611CF06BFE502005A922F045FEBDF81400A4F8D5
:2023A0004800BDF81400002119F048F92DE0C046E0E8002024F0EEFB002818BF032F16D191
:2023C000022024F077F8B749E06809781CF0ECFD0246A879000911D28AB959464878401C47
:2023E000C0B20428487004BFBB48E06006E024F018FE0146012012F041F902462AB1E07951
:2024000001214FF47A7224F09DFE88F00100C7E1DFF8CCB2BBE10646B04A337827781168A1
:2024200068781A46521E00F08D81521E00F09480183A00F0A681B93A00F09F812A3A00F0BA
:2024400083801B1F77D05B1E6ED05B1E54D05B1E3CD05B1E2CD05B1E40F0968120BB707F20
:20246000DBF8109000BBB9F1000F06F1050A1BD0BAF1000F18D04F46B81C5146082223F0A5
:2024800041FA18B9FF68002FF6D104E038461DF0EDFFDBF81090B9F1000F05D19BF80000E3
:2024A0004FF400611CF0E0FD304623F0EBFA6BE1012818BF022840F06781307916F07EFA6C
:2024C0001FF06AFF60E1C0467C052043002840F05B813079012800F05781022806D004285F
:2024E00040F05281304618F037FC4DE1304613F013F849E1700A0120012840F0458170889A
:20250000002840F04181301D01A921F07BFC012840F03A8124F09AFCADF80C00361D0296C8
:2025200001A816F013FD2FE1002840F02D81304611F0CAFD28E1012818BF022840F0248180
:20254000304608F031FD1FE1002900F01D813046884719E1EC080120012818BF022840F07A
:2025600013815846C0795E46072818BF082805D1237A1BB9012104F0FFFF2778032F00F0FA
:2025800093800A2F16D0042F1AD00D2F18D00E2F16D00C2F14D0002F00F0F6801EF022F9C8
:2025A000E07910211CF0F6FFEEE0C0461B1B0120480301208048007800F00700012873D056
:2025C000277A6078002F35D10020E0720746F7701FF050FBF8B120780D281CD00E281AD04B
:2025E000062023F067FF70480078000904D34FF4004001210DF0AAFA687830F0010007D10D
:202600006E48007900F00700022801D024F002FB1EF0E8F8B8E06878022803D108200121DA
:202620000DF094FA052023F045FF42F2107023F0F9F9A9E0E17A01280BD003281ED16878F8
:2026400002281BD1594900260E7001270320677113E0491CC8B20428E07204DB54480078B8
:20266000012809D00AE0534800884FF6FF7181421CBF0426A672E8D10020607021F04AFEB4
:2026800021F006F848480078000902D3287D01287AD16078032877D1082001210DF056FA4A
:2026A00072E0C04621180020207A002848D1E07910211CF06FFF1FF0DDFA98B96878022849
:2026C00003D1082001210DF041FA052023F0F2FE01201FF001FF57E000F8FF07B40601203C
:2026E000F01700206F78207837F001070AD10A2808D13149097801F00701022902D02B4AB9
:202700000821117003280BD11EF06CF8F079022806D1012021F056FD0220012104F02CFF44
:20272000062023F0C7FE687830F001002CD12248007800F00700022826D024F06BFA23E028
:202740000020C6E7022F1FD1012818BF02281BD124F0EEFB28B113F0F7FBA8B16878022847
:2027600008D024F01BFC00280CBF0020012020F0EBFA09E019F046FF06E0304605F0A2F80B
:2027800002E0304606F082FC069823F0CBF8E0791CF0D2FE002806907FF43DAE88F40040EC
:2027A00007B0BDE8F08FC046FE190120A21700206C060120A0170020FC190120F819012055
:2027C0002DE9F04F064693460020ADF13C0DABF80000B06A099303460078884624F060F923
:2027E00048B1708904461FF017FC022804BFABF80040B36A01D0002009901878C84DDFF888
:202800002493401E0A2800F20B84DFE810F02F03B3020C04A0028D0151010904BE0088005D
:2028200066000B00BD4C207D012840F0F9835B1CB06913F8015B1F7824F078FC002800F07E
:20284000F7830379002B00F0F383032B80F2F0830E2D1CDCDFB9D04907752DB901EB850126
:202860000A6BC261096B0AE001EB85010B6B9A01A2EB8302C2610A6B9101A1EB82018161B2
:20288000012180F820101FF087FD002500E001250320B689E4788DF8190006A822F0C2FFD3
:2028A000071C00F0C58338690C2100F8011B00F8015B04700124BC7723F054FD786204A9D0
:2028C000304622F076FC10B17C7704A838627E80BC76384607F0BCFCAAE35C1C207820F0FA
:2028E0001F0700F01F00012840F09A83641C04A8214624F04BFC284604A95D3023F052FC36
:20290000002800F08D83002F40F08A830834A2786178207801EB022120F01EFD88E3688FC0
:202920007189884240F07C835C1C14F8016B04A8214624F02BFC284604A95D3023F032FC7D
:2029400006F01F0726F01F06002800F07183002E40F06E83780017F069FD011C00F06883E8
:2029600067B184460834384663782278401E04F1020402EB03222CF8022BF5D100910EF035
:2029800030FD08461FF0A8FB52E35C789A1C34F07F0704F01F0E40F04B83377F03201EFB90
:2029A00000F0801CC1B2B94240F04283002714F01F0F04BF4FF6FE7C614618D0D9789B785A
:2029C00070464D4603EB012C5378117812F802EF01EB03213EF0770340F02A832B888B422F
:2029E00008BF0EF00707521C401EEDD1BFB960464FF6FE72824212D004F06002602A0ED043
:202A00004D462A88A30907D2E30902D2904203DD0EE3904203DD0BE39142C0F20983B0899F
:202A200024F057FB002836D1B0894FF6FF7122F00DF8041C14D121F09BF8041C00F0F882C9
:202A400000211C2219F000FCB0894D460E35208028886081AA23A374062222740121617439
:202A6000207C0C2805DB0620072F2074BCBF7F1CFFB2677400202073A01C23F022F900284F
:202A800040F0D682307A002800F0D282B169A01C24F07CFBCCE20021C171017A0C2905DBA6
:202AA0000621072F0172BCBF7F1CFFB24772BFE2484671890088884240F0B282307F02280E
:202AC00040F0AE82AA4CA01D00884FF6FE71814240F0AE82162022F01FFE071C00F0A882E2
:202AE00001213970B07900280CBF081C02207870B06A4078B872000902D2B08920F0BAF9EC
:202B0000B169B81C24F042FB0020F874287839461EF054F9B089E0808AE2C046AC04012094
:202B2000581700209217002070891FF075FA002840F076825F78B94987B10C2F03F1020331
:202B400080F276828C463D465A7818786D1E03F1020300EB02202CF8020BF5D14846758940
:202B60000488DFF8D892AC4200F0B280B37C002B00F05E823B1C0A974FF0000811D0A74A3D
:202B800038464146921E32F8023F9C4206D0401E01F10101F7D104E03C8A02000A914FF0C1
:202BA0000108284600211AF04FF900280B907ED0407901287BD10B98807910F0180F76D0E3
:202BC0000B984188384623F0C3FA10B9B8F1010F6DD109F55F794FF6FE704FF000080C9708
:202BE000B6F80CB0CDF820904FF0010A0D90C14611E0B8F1010F08BF4FF0010908D024F062
:202C000010FAC0B290FBF8F101FB08F1A0EB01094FF00008C246089D14271C3D35F81C4F1A
:202C20004FF6FE70A04213D0A34511D00C98214623F08EFA60B96B7C53B1072B08DA08F19C
:202C40000100BAF1000F5FFA80F801D1C14521DD7F1EE3D1B34D332735F8244F0D98A04240
:202C60001AD0A34518D00C98214623F071FA98B96B7A8BB1072B0FDA287901280CD00228B4
:202C80000AD008F10100BAF1000F5FFA80F803D1C14501DC0D9407E07F1EDDD1B8F1000F93
:202CA00002D0B9F1000FA4D00D980B994880B37C5A4C581EB074F77C00970A9D01950294B8
:202CC00001220392B189B269708915F035FDAFE1B4890C2F80F2AC818846ADF81040BD4848
:202CE0008DF812700168CDF8148009B104A8884720461CF0ABFCC82803D14FF6FE701CF03A
:202D0000A5FCC82880F2948109EBC00000F6CC05686808B11FF0E0F92FB1780017F086FBCF
:202D2000686010B984E1002068606C80C2486F70007828706878002800F07A8168680028E5
:202D400000F076817A00414623F03CFB70E1307F022840F06581099828B94D467189288842
:202D6000884240F06581099831460AF0DFF95EE14C020120B5F8481040461FF047F8A84614
:202D8000074608202FB17D781DB90621397007257D70B16A0A79CC788B794D7891F802A054
:202DA000CF7904EB02244A7902EB03296A0928BF1020AA0924BF0830C0B235F0700340F048
:202DC0003781327F904240F0338105F07005680938BF002006D306A8083124F0D7F925F029
:202DE00010050820A90907D3B16A091804A8083124F0CCF925F020052046514621F06EFC5E
:202E000008280DDA8D4B410001EBC001C9188879B84240F30D818F71002002E044010020D1
:202E20000420B8F83A10A14219D048B9B189484601222B460EF044FD28B1F9E02001002019
:202E4000042840F0F58006A804AE009049463A46534601962046029512F028F9E8E0B18950
:202E6000484601222B460EF02BFDE1E0B5F8481040461EF0CBFF4FF00609041C03D06078CD
:202E8000002800F0CD80B06A817847780891C378017900F1050A03EB0120099040461DF072
:202EA000D9FF9AF8001009185FFA81FAB80928BF4FF00E0937F0780040F0B28007F0180095
:202EC000182800F0AD80307F814540F0A9804FF00009CDF800900899B089524643461AF025
:202EE00027F8032800F09C80002807F078074DD117F0180F18D195F8310028B1B089414652
:202F000001223B460EF0DCFC09984FF6FE714A463B460EF0D5FC002838D14FF6FF70ABF87A
:202F2000000039E00810002047F00107780928BF47F00207B089394619F086FF90B18179D8
:202F400011F0180F0ED0417901290BD154B14088B5F848101EF05AFF20B1437813B160784A
:202F600098425DDCB089414601223B460EF0A8FC60B94FF6FF70347AABF80000002C0CBF23
:202F80004946B169B089524623F048F8BBF800104FF6FF70884243D1012000900899B08984
:202FA0005246434619F0C4FF099839461EF0F6FA698F81422ED1099824F08BF860B100798A
:202FC000012818BF022807D1099804A922F0F1F808E0C0466C03012023F0C4F9014604A865
:202FE00024F0D4F8307A012803D1B16906A824F0CDF806A8009004AF0197B06A407840F01E
:20300000300002900999089BB0894A4612F04EF848460CE0B06A80F805A022F099F906E05D
:203020004FF00009F4E70999304610F05DFD099009980FB0BDE8F08FC60401207A01002058
:203040002DE9F04FAD4C04F12C000768ADF1540D17B1002087F84500DFF89C82002517F1C5
:2030600048030BD0BF6DA34E73612FB940460068D0F84C05804773695868706024F0A0F86B
:203080001390082014F0E2F91AF01CFB464610B181A024F011FA1CF037FE684623F044FC96
:2030A0000427284669468DF8007023F0F3FD206423F086FB09A823F045FD284609A98DF80D
:2030C000247023F047FDA06323F084FB0DA823F049FD28460DA98DF8347023F04BFDA16BAE
:2030E000E06319B974A024F0E7F9E06B10B977A024F0E2F9206C10B979A024F0DDF93068A9
:20310000D0F8E00380473068D0F8180280473068D0F8F0028047404600682F460726A03083
:2031200001687B5823B11846804740460068A030761E07F10407F3D1D0F8B8028047EB20ED
:2031400023F08AFEE06A2F4670B105A8FF21082219F07AF8E06A05A9082222F0D3FB04F18B
:203160002C06012818BF3768654A0CCA05A8391C80E80C0021D1082017F058F95FEA0008C0
:2031800056D0A8F10206032723F04BFF06F8020F7F1E4FEA20207070F6D13020F82706F8A8
:2031A000020F4146082204F1480088F8077023F009F940461EF090FF04E004F14800082296
:2031C00023F000F90120082105AA23F0EDFE04F14806002818BF092826D122F06FF8800881
:2031E0001DD205A8FF21082219F02EF807AFFF210822384619F028F80120294608223B46D8
:2032000023F00AFC80B9384605A9082222F07AFB28B930463946082223F0D4F804E001209B
:203220000821324623F0C6FEE22031461FF0F4F822F044F8400834BF2F1C0127314E5520B2
:20324000012106F1320223F0AFFE18B917B1284620F0B8FF2C4EE22006F1400121F0E2FEEE
:2032600038461CF051F805A82946102218F0ECFF707830F001004ED1DFF8908005A910224B
:20328000404622F03FFB002842D105A84146102223F098F83FE0C04652616E646F6D5F73C0
:2032A0006565644175746F6D617469632829206661696C656400C04641455343434D206F22
:2032C00070656E206661696C656400C0414553454342206F70656E206661696C656400C0AC
:2032E00054524E47206F70656E206661696C656400C046C09C05012014010020D4DB0020B0
:20330000E48C0200F0170020AC0401204C8A020005A820F027FF6220102105AA23F044FED1
:2033200028B927B16220102105AA23F043FE05A82946102218F088FF384612F09BFD3846AB
:203340001FF0A8FC384613F0DFF87078A8B905A820F008FF40F20110102105AA23F024FEFD
:2033600030B92FB140F20110102105AA23F022FE05A82946102218F067FF1FB12846012112
:2033800020F0AEF8282017F051F80028606400F04081206B616B221D1BF01CF8CA49087002
:2033A00010211CF0F7F8616C201D0860206B616B04F108021BF00EF8C2490968D1F84C1364
:2033C0008847616C04F108004860206B616B04F10C021AF0FFFF0DF049FC616C04F10C003A
:2033E0008860206B616B04F110094A461AF0F2FFB64F7870B18EBD70381D0180303006F16F
:203400005001119007F1340023F0C0FEDFF8C08296F8230006F148032946FB604FF4B4727E
:20342000387008F5057018F00FFF04F1340B04F1300A626CDBF80010DAF800003C2308F51A
:20344000057C0C324FF6FE7E5B1E2CF806EBF9D1C2F8009004F114021AF0BCFF9F4B9D49AA
:203460007B629D4A08709E4B606CBA6004F11802DBF80010BB6204F114030361DAF80000F0
:2034800012921AF0A7FFDFF85C9289F80700022289F824204FF6FE70A9F81C0022F062FFBF
:2034A000914811990560AF4823F070FE4046FF210E22801C18F0C8FE8C488E4B83608E4A04
:2034C000C2608B49416005708C4B03618C4A42618E4939618B4B83618B4AC2618C4B7B6156
:2034E0008C4ABA618E488C4B8C4AFB618E4910618C4FD16009F1300097601EF0FFFB1EF071
:2035000097FB984809272C307F1E40F8045BFBD14F46F87948F201011DF08CF9F8794FF425
:2035200000411DF087F9F87948F221011DF082F9F87948F222011DF07DF9F87920211DF058
:2035400079F9F87921211DF075F9F87922211DF071F9606C12994161DAF80000DBF80010D2
:2035600004F11C021AF036FF704F48F2150138701DF060F9387838211DF05CF96D4B6E4A01
:20358000FB606B483A61616C786102234FF6FE72DAF8000087F8283004F11C038B61DBF886
:2035A00000103A8404F120021AF014FF634904F12003634A0870634F606CDBF80010C3619B
:2035C000DAF80000176004F124073A461AF002FF65497378087023B991F833300BB102213F
:2035E000F17148F202011DF025F9606CDBF800100762DAF8000004F128021AF0EBFE207075
:203600005149087023F00AFC4870616C04F1280048621CF0E7F912F06BFD139823F050FFD0
:203620000FF016FB21F06CFF26480068D0F8D40090F8430021F076FF22480068D0F8582425
:2036400029460120904723F0B5F940481D4F05707868C068007830B938460068D0F8582446
:2036600028460146904717F087FC3A4F3D703848058145818581C581058245828582C5824A
:2036800005832B464583344C858307210360344A43603248257021F075FC16F0F5FD1FF09D
:2036A00035FB1DF02DFD7078022807D13078012804D14FF4004001210CF048FA15B0BDE8C6
:2036C000F08FC046140100201B1B01206C06012020010020180A012039220100BD82010026
:2036E000856B02002C03012010050120D0080120DDC70000C148020075DE01004F350200D0
:20370000954E020089190200BD4E02008D6A01008D450100095302009DA4000094090120EB
:20372000A943010055B90100C9350100A8060120F13002008D470200D54F0200580A01201D
:20374000640A0120D9220200480A0120241B0120681801201D1B01201C1B0120EC000020AC
:203760004572020040030120F01700202DE9F04F0446B54DB5480021ADF14C0D001D2E689C
:203780000768A0780C910146102910DC102900F0AC80002900F0AE82491E012940F2FD81BA
:2037A000891E00F05581491E00F0248144E3113966D0491E1ED0491E03D0491E00F042834E
:2037C0003AE3207967798DF81000E0788DF8117022F040FC002808BF022005D00C3004A943
:2037E000022222F0EFFD0C988DF82000132108AB01223BE3204634460421C61C304622F0C7
:203800006FFA0C9F0121002C35D0A268904203D02468002CF9D12EE06CB3361D304623F007
:2038200045FBB778804657B92868844218BF251C2068286020461EF04FFC0C991BE0B81C92
:2038400016F0F4FD051C04BF10210C9F13D00C9828706F7061683A46A81C414422F0B2FD60
:20386000BE1C642012212B46F2B21FF023F928461EF032FCFDE23170334612217770F4E2E4
:2038800020460126C41C8DF82160204623F00EFB6F68A3780FB3B3B93868009068681830CB
:2038A0000190787E0290B87E03903969BA8AFB8A381D08F0A5F98DF8210068681EF00CFC44
:2038C0000C9868600CE03968E41C1A4609180846214622F077FD0C9800E010208DF82100D9
:2038E000112132460DF12103C0E22546BD4C89462D1DA07815F8011C002937D0491E10D014
:20390000491E02D0481E67D064E0287823F0D2F9002869D041680978E170007820710C9886
:2039200054E02D7800285FD1E1200DF1230121F079FB9DF8230085424AD00126A670304662
:2039400023F060F80C9809A98DF8240052201EF063FD28461CF0CEFE002839D06570207839
:203960003146642223F0EEFBBA202FE000283BD1E1200DF1250121F055FB9B4E06F13C0788
:203980009DF825103878884222D0DDF8308001255220A5700DF126018DF826801EF03CFD28
:2039A00096F83C000A2805DD1B2803DAE12039461EF032FD8DF8265052200DF126011EF0AC
:2039C0002BFD404623F01EF84046A07002460CE00C9A0AE00220F9E7284623F067FA0C9A2C
:2039E000A97823F041FB00B901228DF822200DF122031FE210218DF82710E1788046DFB1F4
:203A00007A681278384691420ED03F683FB17A681278914205D038463F68002FF7D1022022
:203A20000BE03968016002E0B1493868486038461EF052FB0C9800E001208DF827000DF14D
:203A40002703CDF83480A5E0900A0120500A012001218DF828100C990D900C2204A818F005
:203A6000F3FB25460224ED1C8DF81840284623F01DFAAF1CADF8100017F8010B8DF8190010
:203A800017F8010B23F016F98146384623F00EFABD1C0E9015F8010B15F801AB15F8018BA7
:203AA0002E788DF82900700016F0C0FC0F9000286CD06D1C4EB183463746284623F0F6F93F
:203AC000AD1C7F1E2BF8020BF7D1B9F1000F57D0CDF8409015F8013BDDF83C903746AB46BB
:203AE0000C2FBDF8105011934ADA28461BF0AEFDC82815D14FF6FE701BF0A8FDC8280FD181
:203B0000C34890F8CC38012100F6D40C0C981CF8082B9342C4BF131C081C491CC829F6DB59
:203B2000C74C4FF6FE7604EBC0046068668018B11EF0D2FA0C9860606FB17E00304616F037
:203B400075FC6060002808BF102419D060684946324622F037FCC9486580007867700DF1D1
:203B6000290620701099CDF800B00E9A0196119BCDF808A004A8CDF80C8008F041F8044698
:203B80000F988DF828401EF0A7FA02E010208DF828000AAB0D9881464CE194F801B0012176
:203BA0000228814604F103048DF82B101ED114F8010B03288DF8180005D0204623F076F9CC
:203BC000ADF8100004E004A82146082222F0FAFB083414F8010B8DF81900204623F066F93E
:203BE000A41C11E0580A01205817002002208DF81800204623F05AF9A41CADF8100014F8F6
:203C0000010B8DF819000C98ADF81A0014F8010B23F050F88046204623F048F9A41C0D9047
:203C2000B9F1020F14F8010B14F801AB14F8017B8DF82A001CBF14F8016B06F10A0006D197
:203C4000204623F033F9A41C064606F11400B8F1000F80B240D0FA2830DD6C68002C3BD173
:203C600006F11C0016F0E2FB04466C6024B30C9804F11C0504A98DF82B000C222560201D5A
:203C800022F0A0FBC4F810800D98A082E6829DF82A50257684F819A0A7760F23E376784CB1
:203CA000207808214FF47A7223F04CFAB8B1207808211BF06FFC12E010200EE000940DF179
:203CC0002A000D9A019041463346CDF808A004A8039707F095FF00E002208DF82B002BF077
:203CE0001F0BBBF1200F40F0C4800DF12B03A1E0500A01204FF0100A89468DF82CA0504614
:203D000016F094FB071C00F094805D48E41C7860207822F0CFFF00287CD120780C9E387093
:203D2000B04687F80C80142016F080FB0028B8606BD014F8011B017062782178A61C01EB98
:203D40000221418031787278B41C01EB02218180817914F8022B01F0F00102F00F020A43A7
:203D60008271B96814F8010BC871BD68EB79464673B1580016F05AFBA860B8688568002DB0
:203D800008BF564604D03046BA68D179814231DC2078B9680873BD682B7B73B1580016F0B9
:203DA00045FB2861BD682B69002B08BF564606D0641C4046297B814210DC102E2BD1A8687A
:203DC00010B11EF089F9BD68287B18B128691EF083F9BD6828461EF07FF91CE0627821785E
:203DE0002B6901EB022123F81010BD68A41C421CD0B2DFE7637821789268451CA41C01EBDF
:203E0000032122F81010E8B2BEE7564603E0C04620010020B8268DF82C603EB938461DF0CE
:203E20006DFF8DF82C009DF82C0010B138461EF053F90BAB4946DBE402200C9019E0C0464A
:203E4000EC0900200C988DF810008DF81100E07804A921F083FC9DF8117014219DF81000F9
:203E60008DF81D7007AB8DF81C00022264201EF021FE0C9813B0BDE8F08FC046C60401208C
:203E80001B1B01202DE9F04FADF13C0DC54C0B90C3480C91002147780E919FB137F001063E
:203EA00008D0022F12D1207900F0F80141F00201204605E02046017901F0F80141F0010118
:203EC000017103E0207900F0F8002071261D3078402537F00102657100F00700307005D1BE
:203EE0008E20A0716FB940F0010009E0022F08D1AB4980200978A071012902D140F008005C
:203F0000A0710E99F170317150256572A020B071F171B072F172A089099140F43050A0813A
:203F20002174B2B1022F1CD101201AF07BF828B9206820F00F0040F0020004E0206820F097
:203F40000F0040F001006FF30F1048F22021014306E0216894484CF21017084047EA0001B7
:203F60002160934B9149A0791F780A9381F8320067B90E981BF0C8F98C4890F832000009E7
:203F800011D30E9808A98DF8200009E0084690F83200000907D301200DF121018DF8210086
:203FA00052201EF039FA1BF01DFD21F087F9800838BF0E9803D30E9820F004F901200028A1
:203FC000DFF80CA30D9040F0D8800FF009FF5FEA000B40F0C380754ADDF838802120742146
:203FE0002432174622F0E0FF002859D12120414674223B4622F010FD002851D16B48408F01
:204000004FF6FE7181424BD0684890F84A004FF00108082806D0042804D010F0FDFDDDF86F
:2040200038803DE0C14642200DF122018DF822901EF0F2F907F12F0143201EF0EDF907F17A
:204040002C0147201EF0E8F907F11C014A201EF0E3F907F11A014B201EF0DEF907F12401F4
:2040600028461EF0D9F907F1160153201EF0D4F907F12D0154201EF0CFF907F11801E12013
:204080001EF0CAF9494890F83200000938BFDDF8389052200DF122018DF822901EF0BCF9DA
:2040A0000E9D17E0DAF804100E9AA80000EBC5000C23401881460090294601201EF0F8FE06
:2040C00030B999F80000FF2804BF099889F800006D1CADB23248BAF800104078A942E1DCD6
:2040E00030F0010001D10FF07FFD9548001D006800B180471EF052FFB8F1000F1BD022F064
:20410000A5FE0A99888318B9307800F0F800307023484078022818BF012104D1234A099824
:20412000032182F84A000A98393741703946143023F02CF801E04FF0090B804D0999184FD0
:20414000A81C0180787818B91DF094FD38464078BBF1000FA94605D10E9904E01048DFF84B
:20416000DC91407801210D9110490A9D91F83C20012707FA02F1E96087E00FF031FE10F07B
:204180004BFD0A4A21207421243222F013FF02A8FF210C2218F058F80E9D574612E0C046A3
:2041A000AC040120F81901200000FFFF581700202C030120294601200C2202AB1FF0F2FCB7
:2041C0006D1CADB23888A842F4DCB848407830F001000ED102A8FF21102218F035F80E9DE9
:2041E00003202946102202AB1FF0DCFC6D1C332DF6DB5348006800B1804720F04BFB09983B
:2042000006220E99ADF8100002A818F01DF8142016F00CF95FEA00081BD0A348103007683E
:20422000A7B103270225A8B202A90622404422F0C9F8AD1D7F1EF6D104A94046022222F0BA
:20424000C1F84C201421424622F0B4FE40461DF043FF182016F0EAF8071C10D00E9D1822DB
:20426000294617F0F1FF0620294618223B461FF099FC6D1C032DF6DB38461DF02DFF18F09B
:2042800049F98A48DFF8B49040780D99864D012966D1B44F2437E8B1012807D002280BD160
:2042A000307800F0F80040F0020004E0307800F0F80040F001003070A34821F071FA002868
:2042C00008BF09980BD00A9A04210320917206E0700A01203178022001F0F8013170DDF800
:2042E000288088F8010022F09CFE0B996F4E00F07F000818643080B20E90F06B0221C8F857
:204300000C00FF201FF0ECF896494FF6FE70431C48870E46F0870998A1F848301FF0D2F968
:2043200062484078012810D10C9801280AD0099902A8082217F088FF02A804E0A809012006
:20434000E408012009981EF047F8212074213A4622F030FE099802211FF0C2F853484078EC
:20436000DDF834A018B9A08940F00100A0812F6987B9122016F05AF80646002E2E616ED09F
:204380004FF6FE70B61F0327411C26F8060F7F1E7180FAD1BAF1000F61D1099906AB4C20D7
:2043A000022222F039FB002852D1BDF8180000284ED004284CDA182016F038F803274FF00C
:2043C00002084FF6FE7B0646099C2B691FFA88F14C2006221B1922F01FFB78BB2869015BEA
:2043E0008B452BD056B300962018099A4188182306201EF05DFD30692A6900F2E933336118
:204400001019418805F11402880000EBC10029691350081973694188880000EBC1008018E3
:2044200029694360081941881822334606201FF0B9FB09993046182217F006FF7F1E04F1D1
:20444000060408F10608C0D116B130461DF044FE164B099971200822483322F0DDFA1348B1
:204460004778381C06D121F07DFF22F09BFB0F48477817B122F08EFB18B10120E870099EBB
:204480002E713248324EC9F80C00C9F810607FB137F0010003D120F085FC2F480BE020F056
:2044A00081FC2E4807E0C046CCE80020AC04012020F078FC2A482749BAF1000F086019D006
:2044C000284890F86500A8B92748407890B9DDF82480622102AA404618F09EFD02A84146AC
:2044E00020F034F8404614F069FA02A81022414617F0AAFE0A98006950B10A9C103407681C
:2045000020681DF0E9FD0A99384600280861F6D10A9A099F01200146107002F109045772AA
:204520008520093222F040FD28B9852039460122234622F071FA0E9821F054FD20F01AFF0D
:2045400050460FB0BDE8F08FA0060120B1F10000756C020078080120017A0100A55C020076
:204560006183010058170020AC0401202DE9F04FBE48C84CADF1340D0690256940680121BA
:204580004FF0E047C06809934FF000080170C24808921F4080F800804FF0020000EA020011
:2045A00008BF002840F0E682DFF8F092DFF8F0A21E4611464FF4803018EA060700EA01000A
:2045C00008BF002833D141464FF4003011EA060700EA020008BF00280ED137464FF48000EC
:2045E000394000EA020008BF002800F0B78285F804801AF05BF8B1E285F80480EB201FF032
:204600001BFA4A46514682F800800878862801D11FF094FA22F0D4FDE1690A6882F804802A
:204620000968E16122F04CFF21F0AEFD96E285F804801FF069FA81262778A4F80C80994973
:20464000A770994D0860994B2E70FF221A702169069E087A801E81B230684A46D0F8000156
:2046600082F80080C0890B918842C0F26B82E1690831096804F1180001600426A6810B989C
:20468000657EA17E04F11902C01E80B2069EE37E0B9005EB01205178C1F301193168608136
:2046A00001F1B80CDCF80010237109780792002908BFB9F1020F00F04582B9F1020F00F3A2
:2046C000418219B110F0070F00F03C82667800F00705AD1E022D08BF002E00F0338231B139
:2046E00051460978862902D1002D40F02B82001300F00200022864DA35435AD1DCF81C0016
:2047000090F88300022851D0E1690C31097805A801700527A78122F053FD554606462878E0
:20472000862840D106980068403001680F6837B9D0F80C05804706980068006C07689DF95D
:20474000140022F07BFD787706980068016C096881F81E80006C9DF914100068C177304695
:2047600022F0AEFE2679678922F02AFD51460A7807F01007862A15D1BA4D05F11E031A8836
:20478000521C1A8087220A7022F09AFEE879B04206D11FB9404616F079F807E01B20FAE742
:2047A000E920F8E70646304622F08AFE21F0ECFCCAE151460878862803D11FF0BFF9A77892
:2047C00066788FB186B9012F00F0BC816089022F03D110F0070F40F0B581032F05D100F0BD
:2047E0000701032901D0ADE16089010980F0AA81011301F00201022902DA810A80F0A2816B
:2048000007994978C1F3810BBBF1010F4FEAA1110A9100F09781012900F09481B9F1020FC3
:2048200014DA00F00701012918BF03290ED1BBF1000F0BD10A9F002F00F084810699096812
:20484000AC3109680F78002F00F07C81BC49B9F1020F0DD00A9E11F80B708A5DB918CFB265
:204860005EB3C10929D3BF1E12E0C046140100200A460A990BEB0207891809793A79521825
:20488000C109D7B214D20A995BEA010615D0BF1CFFB212E044180120400A0120251B012044
:2048A000281B0120041B0120231B01202D1800200A995BEA010608BF02270B9AC0F3002138
:2048C000781A61718242C0F23D81069E1046C01B4018316880B2D1F850122081743080B2A6
:2048E000884700286678606100F02C814146742217F0AAFC84F8038062891EB9C14902F0FE
:2049000020000870BF4861790678C446002E30D000292ED102F00700032808D0012828D122
:2049200006980068D0F8D40090F882600EB306984068406906781EB121F06AFFFE2815D0E9
:2049400006980068D0F84C02804750B906980068D0F84402804720B96289617994F803C0A3
:2049600007E00420E0706289617901E00420E07084466569268905F1740305F17400AB6594
:20498000079B686093F801A02E812089CAF301190029A5F85C001878AA8100F0780049EADA
:2049A00000004CEA000028744FF0FF06AE730CBF2079404685F83AB085F849000A9885F88A
:2049C0003000A089002FA0EB010086B2A68100F0B480E169E78068463A468919083114F082
:2049E000EDFBBF19B8B2A0812846017C4FEAAA0212F0030F02F003076D4601F0400B42D08B
:204A0000B9F1020F434601D1C9090BD29DF801209DF8001001EB0221A0F844100DF1020576
:204A2000A0F84210814EB0F84410B6F846208A4203D04FF6FF728A4223D1032F14D06A78A0
:204A4000297801EB022189B24186B6F84420AD1C01208A4214D04FF6FF728A4218BF181C6B
:204A60000EE0C0464008012060692946323022F08DFB60693B363146323021F093FB0835B6
:204A80000346002B56D00798407886111ED06169B9F1020F03D0087CC00903D309E05BEAF7
:204AA000070306D16A782878AD1C00EB0220A1F84200032E05D068782A7802EB00220A85BC
:204AC00004E060692946283022F060FB06990968AC310A686089167886B1B9F1020F0DDA46
:204AE00000F00702012A18BF032A0BD162692FB94F4BB2F842201B8893421BD100F00702FC
:204B0000032A05D0012A18D1886A90F88200A0B1D1F89C116069884778B90798817867698B
:204B2000407884F80380C1F3011100F078000843387402E019F0BAFD06E00BF05FFD03E0D7
:204B4000A491020021F012FB22F03AFBE1690A6882F804800968E16122F0B2FC0899099E44
:204B6000202047460840374008BF002830D021F0C5FA2DE02F4991F90000002803DD91F949
:204B80000000401E08702C4991F90000002803DD91F90000401E0870114640461E464FF058
:204BA00080770840374008BF00280DD0234991F90000002803DD91F90000401E08702048AD
:204BC0000121017021F0E2FC85F8048019F06EFDDFF864C09CF90070B7B108994FF0E0476F
:204BE0000220374000EA010008BF002816D09CF90000002812DC06980068D0F84C058047CB
:204C00000CE0C046251B01200E48069F80F800803868D0F858244146084690470698406878
:204C2000C06880F800800DB0BDE8F08F9C050120E2050120430A0120420A0120440A01205F
:204C4000410A01203E0A01202DE9F04F0446B54EA578F06A4FF0000BADF14C0D294631295C
:204C600011DC312900F0E280DFF8C882B24F142914D91C3900F06281491E00F01B811339E8
:204C800000F0E9807FE2323900F0BA80491E69D0491E012929D9891E17D074E2DFE811F0E6
:204CA0006402A502A102500299027302730224024E010A010D02F8018F0273028902DE0175
:204CC00073027302C901B801760240B1C06830B1E01C22F0EBF8F16AC968884700E00320A6
:204CE0008DF8380036210EAB61E201270028A8468DF839702ED0406A60B3204602A920F05C
:204D000081FD342D044618BF584602D122F0CEF8A41C2578E0B902A821F0B9FE641C012839
:204D20000DD1BDF80C00294622461FF03FFFBDF80C00012803D1E22021461DF06DFBF06ABA
:204D4000466A02AB93E803002A462346B04702E0042000E003208DF8390041460DF1390320
:204D60003D46A5E0002840D0C06900283DD0204602A920F047FD054602A821F088FE01287B
:204D800018BF584603D1BDF80C0021F04BFD0446284622F08BF8AD788046F82DA8BFF725D0
:204DA000A81C5FFA80F9484615F040FB071C1AD0A4B9F06ABE1C02ABC469009693E8030003
:204DC00042462B46A047041C08D1584638704A4633213B467D7061201DF06CFE38461DF0DF
:204DE0007BF91CB90DE2102400E0032408A85946022217F029FA8DF82040332108ABFCE1DA
:204E000068B1806A58B104A9204620F0FBFCF06A826A04AF97E803009047014600E0594654
:204E200002A821F0C3FA32210422D8E160B1806950B1204602A920F0E5FCF06A826902AFD5
:204E400097E80300904700E003208DF83A0031210DF13A03ABE101258DF83B5010B30069BC
:204E600000B3204602A920F0CDFC042120F038FF5FEA000814D015F0D9FAF46A071C14D0B7
:204E80005946424617F0E0F9246902A803C842463B46A0478DF83B0038461DF01DF904E0D4
:204EA000052000E003208DF83B0030210DF13B032A46A3E1E41C8DF83CB0204621F0F6FFAC
:204EC000A846092D064609D0A01C21F0EFFF0746201D21F0EBFFA41D054602E0A778E578DF
:204EE000241D242E03D12088352606AC069030461FF0D8FD7919884216DB27B93046294694
:204F000022461FF053FE30462946224622F052F830B9012E0BD1E22021461DF07DFA04E05B
:204F20000A2002E0D4DB002002208DF83C0041460FAB3CE11B1B0120DC9102002646F61C11
:204F4000304621F0B3FFA9468046B8F1240F46D021F068FC0446082D08BFB67803D0B01CE9
:204F600021F0A4FF064640461FF09CFD86422BDA5CBB801B85B2F82DA8BFF725A81C5FFA88
:204F800080FA504615F052FA071C1BD0B81C59462A4617F059F9BB1C404631462A4621F011
:204FA0003BFD48B958463870524649463B467D7061201DF07FFD00E00A2438461DF08CF8B6
:204FC0001CB91EE1102400E002240AA85946022217F03AF98DF8284049460AAB0DE13520A0
:204FE0005946042207AB21F017FD38B9BDF81C20584602210425ADF8262002E001205946BC
:2050000002258DF824008DF8251009AB08214FE7E01C21F04BFF242802D01FF043FD00E04F
:2050200058468DF82C00001213210BAB8DF82D00E3E0E01C21F03AFF0546601D21F036FF5C
:205040000146242D03D0284622F031F800E058468DF83F0012210DF13F03A8E0E078211D69
:2050600070B1401E0AD10878012805D020B1522010A91FF0D7FF08E0522002E0022002E037
:20508000E0201DF0C9F98DF840000F2110AB8EE041460125087814F8031F8DF84250042984
:2050A000A8BF022003DA37F8111019F0DDFF8DF842000B210DF14203FAE6E41C207804287B
:2050C000A8BF02200ADA601C21F0F0FE267841460246087837F8161022F034F88DF84300A0
:2050E0000A210DF1430362E0E01C21F0DFFE0646601D21F0DBFEE779E51C0146242E19D07F
:20510000B94205F1050510DD30465A4621F04CFF8DF844009DF8440009280ED16FB13046ED
:2051200039462A4621F046FF07E030462A4621F03BFF00E058468DF84400072111AB36E0D1
:205140000127E41CE2208DF8457021461DF064F930B938460821224621F02CFF8DF845001C
:2051600003210DF14503FBE5E078284C30B1401E47D121F077FE01202060FEE721F072FE35
:2051800001202060FEE74FF0020B3AE094F903001F4F8DF83D003868D0F830240DF13D016B
:2051A000E020904714210DF13E038DF83E00012224E08DF841B00E210DF14103F7E721F0E4
:2051C00030FF8DF830000C210CAB00128DF8310013E0E22002A91FF025FF0421082202AB70
:2051E0000CE00C4B02210A2208E05920062701218DF834000DAB8DF83570022261201DF020
:2052000059FC584613B0BDE8F08FC0467C0520431401002090910200D249D14A03462DE9DD
:20522000F04301F108009D78177800680024ADF1440D2A46402A2ADC402A00F0DE81202A3F
:2052400014DC202A00F010820A2A45D9103A00F03282521E00F02582D21E00F01982521E60
:2052600000F00F82501E00F0048263E1B2F1210000F0F481401E00F0EB81401E00F0DE81F5
:20528000401E00F0D481401E00F0C98152E14A2A11DC4A2A00F08E81413A00F0A381D21E4D
:2052A00000F09C81521E30D0D21E00F08B81521E00F084813EE1B2F14B0000F06881801E9C
:2052C00000F06181163800F04F81401E00F039817C3800F031812DE1121E00F0CE80521EA4
:2052E00070D0521E00F02A82521E00F01582521E00F00282521E00F0F281521E41D0D21E43
:2053000000F0DE81521E1DD014E1184606A9C01C20F072FF2E468DF81E0048B99DF81800BD
:20532000BDF818708DF81F0038128DF8200005E00DF11F00FF21022216F086FF03220DF1A9
:205340001E031CE0DB1C5F782E460D4638B9684621F094FB012069460DF08CFDA8603FB10E
:20536000052F03D064211EF00DF903E0012129701DF064FB8DF836400DF1360301223546B3
:20538000EFE118468DF83740C71C384621F08EFDBF782E46C0F304213FB9052903D04FF625
:2053A000FF7181420BD1204607E0052903D04FF6FF71814203D14FF0FF30D64908600DF151
:2053C0003703DBE7202015F031F8061C00F0CD81FF21202216F038FF731C01202146082223
:2053E00021F01AFB751C071C18BF01272146042205AB842021F010FB083560B99DF81700D5
:2054000028709DF8160068709DF81500A8709DF81400E87001E047F002078320214602225F
:2054200007AB21F0F9FA2D1D38B99DF81C002870BDF81C000012687001E047F00407ED1C4B
:205440006120214601226B1E21F0E6FA08B147F008072146102262202B4621F0DDFA08B19B
:2054600047F01007012120223346672037701DF021FB30461CF030FE77E1264637F001000E
:205480008DF83C600AD10FA819F012FA9DF83C1080460E2000EB4100C7B201E0A0460E27CE
:2054A000384614F0C3FF5FEA00093DD0054621460822012005F8016B2B4621F0ADFA21F0A9
:2054C000C5FC0835072305F8010B001205F8010BA84A05F8013B1078A74905F8010B4B7811
:2054E00033F0010316D19DF83C0028709DF83C308BB141466D1C20469DF83C2082420ADDE6
:205500000A782A7031F8022B401CC0B212126A70AD1CF1E72E70672021463A464B461DF002
:20552000C9FA48461CF0D8FDB8F1000F00F01D8146469EE7022418E122464720E02113469A
:2055400011E11846C11C4A7A087A00EB02208A7A8DF82E400EF034FE0DF12E0300E1C0468E
:20556000AD040120CCE8002018468DF82F400822C01C0146684620F025FF68461AF014FB3D
:205580000DF12F03ECE018460FF01CFDEDE0D91C6846082220F016FF8DF80840CDF80CD06C
:2055A00002208DF8090002A816F058FA0CAB8DF83000D5E018461DF09BFAD6E018461FF0F5
:2055C00057FED2E0DE1C307871781FF03BFC0222307000127070294630466FE0184613F0A8
:2055E000FDF8C2E0D81C21F061FCADF80200684616F064FE01AE0822EDE7D91C01A8082280
:2056000020F0E0FE684618F0E1FDBDF802000DF122038DF8220000128DF8230016E0F520C2
:205620008DF827400DF126038DF826000EE0F52011460DF131038DF831003AE0F520FF2715
:205640008DF82A000DF12A038DF82B70022288E0F5200DF132038DF8320081E0F5200DF151
:2056600033038DF833007BE0F5200DAB8DF8340076E068462146092216F0E6FD162109227A
:205680000DE068462146062216F0DEFD152105E068462146062216F0D7FD142106226E46BC
:2056A0009AE7D8781DF07EFA11210DF135038DF83500012256E01A78D81C1021034651E0E8
:2056C00021F002FF054621F09DFB2C496843B0FBF1F1684620F06AFE09210422DFE7DE1CE1
:2056E00062201FF0DFF901463246622021F062FC0EAB8DF8380033E0DE1C61201FF0D2F9B3
:2057000001463246612021F055FC0DF139038DF8390025E0280A0120D81C042120F0E0FA94
:20572000049084201FF0BEF9014604AA842021F041FC0DF13A038DF83A0011E0D81C21F094
:20574000B5FBADF81A0083201FF0ACF901460DF11A02832021F02EFC0DF13B038DF83B0048
:205760000122294667201DF0A5F9204611B0BDE8F083C0462C030120AC04012040420F006E
:205780002DE9F04FCF48D04CDFF840830F46390CADF1240D80F06582790927D30023037015
:2057A000D7494370184621F0ABFBD649012021F0A7FBD549062021F0A3FBD449072021F0C6
:2057C0009FFBD849082021F09BFB0522D6498DF80C300DF10D0020F0F5FD41208021062201
:2057E00003AB1DF067F987F0100044E2B80828BF87F0020080F03F822068390931D217F4B8
:20580000706F08BF002000F03682380B04D3002021F012F887F40067F80A04D3012021F0D8
:205820000BF887F48067B80A04D3022021F004F887F40077780A04D3032020F0FDFF87F446
:205840008077384617E22168884205D0016829601CF042FC286804E0016821601CF03CFCD4
:20586000206808BB606858B1C27EC17E521E491ED6B2C17626B960681CF02EFC002060603A
:205880002668002E08BF00280BD04446207808214FF47A7221F056FC18B12078082119F012
:2058A00079FE87F00800E6E1017B491E0173C9B20029C8D005460068D3E70546D9F80460AB
:2058C00028781A280EDC1A2854D0401E00F06C81401E00F02B81801E00F0B581801E00F00F
:2058E0001781BBE1243800F0A881AD3800F09E81801E03D02A3800F08B81AFE1A87C09304F
:20590000C0B2804614F092FD061C00F0A781A97800F8011B6988091200F8011B99F80C1080
:2059200000F8011B99F80E1000F8011BB9F80E10091200F8011B99F8101000F8011B99F83C
:20594000111000F8011B99F8141000F8011BB9F81410091200F8011BAA7CA96920F032FDCE
:205960004520FF21424633461DF0A4F830461CF0B3FB73E1B5F824A0E97B0AF114001FFA77
:2059800080F821F071FB002640B9A87B032805D0B8F1F00FD8BF4FF0810B16DD08F10A00D0
:2059A0004FF0820B1FFA80F8B8F1FA0F0DDD0AF1100014F03BFD061C00F0508106F11000BD
:2059C000A8EB0A0470601FFA84F8404614F02EFD079020B9002E00F041813046A0E004467C
:2059E000A87804F8010B6888001204F8010B287904F8010BA888BBF1820F4FEA202004F8EA
:205A0000010B1AD1A87B04F8010BA87B032805D0A8792070E8880012607004E0A91D20462E
:205A2000082220F0CFFCE87B083404F8010B287C04F8010B288A001207E0A87904F8010B3A
:205A4000E888001204F8010BE87B04F8010B287D04F8010B687D04F8010BA87D04F8010B8A
:205A6000687E04F8010BE969204620F09FFC241DBBF1820F04D0002004F8010B504606E0DF
:205A8000002004F8010B04F801AB4FEA2A2004F8010B0E480078DEB10B4909680A4B3160A3
:205AA0004FF47A721E6008210F23337321F04AFB20B106480078082119F06CFDE869B0604F
:205AC000706807E050040120900A01201B1B012020465444A96A524620F074FC95F82C009E
:205AE00004F8010BA88D5FFA88F85946001204F8010B95F82E00079E2070442032E7C04664
:205B000015E90100DB3C0200991F0200953E0200A878401DC0B214F089FC002800F09E8030
:205B2000064623E7292F02009091020029790B2000EB4100C0B21FF0EFFD002800F08E8006
:205B4000A9782E798DF80010EC788DF802608DF801400DF10301FEB1AA792C79EE880A706E
:205B6000022C4FEA26218DF804100DF1050113DB2A7A2C792E890A70032C4FEA26218DF83E
:205B800006100DF1070107D1AA7A6E890A7031128DF808100DF109012A7BAE890A703212FA
:205BA0004A701FF0BFFE59E0002E57D070788DF81500B0788DF816003078FA2819DC9DF838
:205BC000150000F01E00162811DA2C499DF815000D4600F01F00820050194068091D30B15E
:205BE0008958304688478DF8140028B9BEE6012000E004208DF814009DF8150020F01F00CA
:205C000020287FF4B3AE60200021032205ABABE66878AE78EC788DF8180006AB8DF81960AB
:205C200003228DF81A404420802103E06B1C4520C02101221CF03EFF10E0F0783346401D11
:205C4000C2B26920F0E7F078401DC4B2A11E701CC9B220F0FBFCA41904F8010C48461FF005
:205C600061FE0748007819F067FC5FEA00097FF424AE87F4004009B0BDE8F08F50040120EE
:205C80001B1B01202DE9FC47D44C0F460646F80B80F00C826078B90F80F0AC81B90880F024
:205CA0009F81DFF84C83F90A80F00281390B80F0CC80380907D2F80FC0F02E8227F08047C9
:205CC00017F0CAFF28E221F07BFA81461FF06AFE002800F0B480082021F006F9002840F04A
:205CE000AE80802021F000F9002840F0A880684613F0E4FB012803D10098002800F09F80F0
:205D000094F84102002840F09A8000250126E8B220F0ECFD48B1837A3BB1867290F90900F7
:205D200006FA00F0C0B21DF069FD6D1C032DEED3032084F8240004F5CE7021F03BFA484646
:205D400021F0BEFBC34800252A460168056050F8081CD44940F8085C04F160001FF031FD54
:205D600040460068006B8047A168401A010BE06AC1F1FF3282422CBF08444FF0FF30E062BC
:205D800094F8300020B12069E16AB1EBC02F25D91FF018FE294600B13146081C1BD0C24844
:205DA00040F6090101804580417B06F00F0221F00F010A434273017B05F00F0321F00F01D3
:205DC00043EA010202732946416020F03BFF418811F4406FFBD084F83060E5621BF0BEFA66
:205DE000D1482946056002201FF01EFB02201EF0E1F8112011F092F8207818B960685030F6
:205E000021F0F4F9C948007810B90E2011F086F894F8310020B184F8315005201EF0CAF805
:205E2000C348A06284F82450B4F9B400B4F9B610884214BF0220072015F0F8FA02E0484644
:205E400021F03EFB27F008073AE720B104201EF0B1F80020607065681DF02EF938B12846BD
:205E60002D6A6FF4807100224FF00073A847E06858B140460068006B8047E2686168801A56
:205E8000C860000BC8600026E660AA4904F1600000221FF096FC0221D4F8A00084F82410F1
:205EA00018B104F1E00021F0A9F927F4006707E721F086F906461FF075FDD4F89810002828
:205EC000894600F08480002900F081809A49042504F16000002284F824501FF072FC30467F
:205EE00021F0EEFA04F5CE7021F064F940460068006B8047E0604FF0010884F801802846F1
:205F00001EF070F8D9F810006060D9F81000816AC90803D3436A294600229847404619F04B
:205F2000D3F8606880F81980606811F017F96568D5F808A040F60A02D01F564600F1010CD7
:205F400000E01E46736833B119888A4203D0884218BF8C45F5D100217160727B08F00F03DD
:205F600022F00F0213437373D9F80C201288904224D06046904221D02B8F03B3E96305F14A
:205F80003802518095F8440001F00F0320F00F00034385F8443095F8450008F00F0320F0E0
:205FA0000F00034385F845307260707B01F00F0520F00F0045EA0001717300E0E1605046EE
:205FC00020F040FE514640461FF02EFA02E0304621F076FA27F480679EE0C04668F2002046
:205FE0000AF00EF9D4F8A00008B927F0020793E08C010010514A116841F08001116020B13B
:2060000004201DF0D7FF0020607021F0D9F880464B480068016804208847216A81421BD150
:20602000357ECDB1A568BDB1D4F8A8506DB1E968098840F60300884204D0E9680988401CDB
:20604000884202D106F1140001E006F110001CF0A3F806E01410044040F6C411316171614C
:206060002062404621F02CFA1DF026F880B1356A30466FF4807100224FF00073A847D4F88D
:206080009800002808BF47F0020701D017F0E4FDF569002130464FF080630A46A84727F013
:2060A000005739E0F1F501000C1A012021F088F8D4F8B06066B306F1280106C90A234FF061
:2060C000E0450B40154008BF002B21D106F1280191E8000306F1280595E8060006F12803B2
:2060E00022EA090221EA080183E8060021F0E8F9B16879B1B9F1000F08BFB8F1000F09D0BE
:206100003069B6F93010B5684B464246A84701E021F0D6F927F4804727B104F1E000394603
:2061200021F06CF8BDE8FC8700000460569102006D470100E539010085590200CC2108408C
:20614000E00100102DE9F04FADF17C0D1B91C0491C923CC9064610A83CC00EC980E80E001D
:2061600000248DF84240327F8DF84340B08D8DF84D40D6F828C0ADF844401746ADF85A00B1
:20618000F0898DF854706146ADF84A00087800F00303022B8DF8400000F3FD8123461D93B5
:2061A000491C1E9343083CD200F00C0EBEF10C0F0CD043093CBF11F8013B8DF84230BEF18E
:2061C000080F04BF01238DF84C3001D08DF84C40BEF10C0F0AD0737903F00303012B0CD14C
:2061E00040F00C0073898DF8400004E04D780B78891C03EB0523ADF84430430911D24D78AE
:206200000B78891C03EB0523ADF846300B784D78891C03EB0523ADF8483011F8013B8DF83B
:20622000433011F8013B30F07F058DF855301ED00B7833F003058DF8413040F0A88103F01A
:20624000030EBEF1030F00F0A28113F0030F01F101010ED011F8013B00F00305022D8DF881
:20626000573004BF11F8013B8DF8583001E08DF841401491A1EB0C017F1AFFB2BA42C0F265
:206280008681D21B8DF85470D1B28DF84D100F4300F08181C10907D370891BF0BDFE00288D
:2062A00040F079819DF8400000F00C012746091F08BF0127820932D301221E9279B3B28994
:2062C00020F0C4FD904202D1F08D000A0DD220F0BDFD904221D0F18D080A38BF101C07D3C8
:2062E0009DF8400000F003032DE07089ADF85A20804620F0ABFDBDF85A10884205D04046EC
:2063000019F00FFF002800F04681A448026810A940469047002840F03E819DF84000F18DB1
:2063200000F003030A0A0ED2C2090CD39DF8412012F0030F07D100F00C020C2A03D0082AAE
:206340001CBF01221D92DFF86082022B00F00081012B00F0CE8010F0030F40F01C81904818
:2063600090F82F00012803D1B579002D00F013819DF8540002221A900B0A9DF84240BDF8F2
:2063800046B0BDF848A09DF855E09DF857C0DDF850908DF86420B0899DF84350ADF85C00D4
:2063A00075D2454605F11C021468002F52D11D9F17B110A913F04FFC7A484178022936D1F1
:2063C0000078012833D1B07C002830D070891BF023FE022801D0707948B37449B2893C206C
:2063E0008B1F33F8064F944204D19C78F77CBC4200F0D180401EF4D16878891F3C234FF6B3
:20640000FE7731F8064FA74202D05B1EF9D1C2E00A80F27C8A700C228A8004211BF03CFE55
:2064200028B9687804214FF4FA7220F08BFEF07C1E9F00901C9D0197594C0295B07C1B9B06
:206440000390B4F8482017A910A811F0E7FDA2E0388F0200307C002C8DF8560000F09B802F
:2064600020F0F4FCBDF85C20904240F0948030791E9F00901C9D01971B9A02951D9B0391F6
:2064800096F8300010A9049017A8A04783E08DF820208DF822508DF82340ADF83010708966
:2064A000ADF818008DF835E0ADF826B0ADF828A0CDF82C901A9B8DF836C0327CADF82A303F
:2064C00035798DF83220B47C8DF8335096F832108DF83440324F8DF83810B7F84800ADF84C
:2064E000240096F830708DF8377006A805F08AFD51E01D9FB58937B1080A04D2284610A9D2
:2065000013F0A9FBB5899DF85400B6791030C0B21FF002F9071C3ED07D81022038703E7318
:206520007C709DF854203A7207F110057D609DF84000800928BF01247C72149978681FF0DC
:2065400041FF45466D1C287839461AF037FC22E09DF84100B189454624352B6810F0030FF0
:2065600010D110A807901248ADF8181006A91DF0B9FE80B1062141730068407B21461BF0B0
:206580002DF908E03BB110A82246984703E08DF84D408DF854401FB0BDE8F08F7408012064
:2065A00058170020AC0401206C06012034030020F30B02002DE9F04F4FF0FF084146ADF1D1
:2065C0004C0D0E910F914FF0000910914E46089609960A96AD4C0B9604F1300B0C96E06815
:2065E0000D96494611919EE0E068710306AA042320F012FD119903AA30461FF02FFC02AAE4
:20660000304601211FF02AFC3046022101AA1FF025FC069800F0FF0028709DF81900069FC1
:206620006870C7F30140E8709DF80E30AB702878FF2834D0BDF80C70FE2830D04FF6FF706B
:20664000B8422AD107A81CF08FFAE06871034FF088524FF4005320F0DFFCBA484FF400570F
:2066600050F8041D3F1FBFB2B1F1FF3F07F1885201D1032FF4D810684FF0010A514600F017
:20668000FF03FF2B18BF8A46491C000A0529F6DB106007981FF07EFE5744EF8001E0102004
:2066A000E8809DF80A00BDF8087028719DF806302F81BDF804206B7129786A81E068FF29E1
:2066C0002AD0FE2922D07E291AD07C2912D078290BD0702904D00D99491CC9B20D9120E082
:2066E0000C99491CC9B20C911BE00B99491CC9B20B9116E00A990F96491CC9B20A9110E0B4
:2067000009990E96491CC9B209910AE00899B046491CC9B2089104E009F1010710965FFADA
:2067200087F9761CF6B2E578B54200F323810D9F002F38D10898022835DA0C98022832DA1D
:20674000099802282FDA4D452BD00C98C0B90898A0B90B980A99084325D01EF0EBFB854281
:2067600019DCB9F1000F14D094F83200FE211DF0C1FBE5780120DDF8408015E0012013E0C5
:20678000089860B9B9F1000F07D11EF0D3FB854201DC062008E0032006E00220EBE7022002
:2067A00002E0119800E004200028A07000F0CC80401E49D0401E00F0AA80401E06D0401E55
:2067C00000F09880801E00F094800EE11EF0B2FB05460C2084F83C5015FB00B0817E84F8AB
:2067E0003D10C07E84F83E000EF08CFAE2782D1895FBF2F050432D1AE8B284F83200401C41
:2068000090FBF2F15143401A84F831007C201CF01BFCFF2810D17E201CF016FCFF280BD1E9
:20682000FF201CF011FCFF2806D178201CF00CFCFF2808BF94F8310084F833000C2110FBE4
:2068400001B0808BE0868FE00F9F08F1010090FBF5F184F832806943FF2FA0EB0100C1B287
:2068600084F8311014D10E98FF2804D10C200E9111FB00B004E00146880000EBC100584452
:2068800084F83310808BE086AFE0C046C01900203A46D0B2910084F8330001EBC2015944AC
:2068A000898B1729E18640F2A080C91F01AA89B212F062FA9DF80F00C0083FD3119F0097DA
:2068C000BDF81220E18E94F833000323891AC91F01AA89B209F0EAFB002840F08680BDF81B
:2068E0001010002900F081809DF814001AF040FA7BE0FEE7119EB54226DD304610F0AEFA6A
:206900006178E578761CF6B201436170F3E708F1010084F8328090FBF5F16943401A84F8FD
:2069200031005FFA88F010F099FA6070FE215FFA88F01DF0DFFA012084F83500119801F0B0
